:020000040800F2
:10000000000800204D2800087D0B00087F0B000829
:1000100000000000000000000000000000000000E0
:10002000000000000000000000000000810B00083C
:100030000000000000000000830B0008850B000892
:10004000CD280008CD280008CD280008CD280008BC
:10005000CD280008CD280008CD2800088D0B000809
:10006000000000009D0B0008CD280008CD280008E6
:10007000CD280008CD28000800000000CD28000889
:100080000000000000000000000000000000000070
:10009000CD2800080000000000000000CD28000866
:1000A00000000000CD280008000000000000000053
:1000B000AD0B0008CD280008000000000000000083
:1000C00010B5064C2378002B07D1054B002B02D02E
:1000D000044800E000BF0123237010BD740000201D
:1000E0000000000044310008044B10B5002B03D081
:1000F0000349044800E000BF10BDC04600000000F6
:100100007800002044310008002243088B4274D359
:1001100003098B425FD3030A8B4244D3030B8B4208
:1001200028D3030C8B420DD3FF22090212BA030C11
:100130008B4202D31212090265D0030B8B4219D3F2
:1001400000E0090AC30B8B4201D3CB03C01A524112
:10015000830B8B4201D38B03C01A5241430B8B425A
:1001600001D34B03C01A5241030B8B4201D30B0343
:10017000C01A5241C30A8B4201D3CB02C01A52416A
:10018000830A8B4201D38B02C01A5241430A8B422D
:1001900001D34B02C01A5241030A8B4201D30B0216
:1001A000C01A5241CDD2C3098B4201D3CB01C01A30
:1001B000524183098B4201D38B01C01A524143093A
:1001C0008B4201D34B01C01A524103098B4201D328
:1001D0000B01C01A5241C3088B4201D3CB00C01A95
:1001E000524183088B4201D38B00C01A524143080D
:1001F0008B4201D34B00C01A5241411A00D2014632
:10020000524110467047FFE701B5002000F006F8A4
:1002100002BDC0460029F7D076E770477047C04658
:10022000002B11D1002A0FD1002900D1002802D0C3
:100230000021C943081C07B4024802A140180290DB
:1002400003BDC046D9FFFFFF03B4684601B502985D
:1002500000F030F8019B9E4602B00CBC7047C046CF
:10026000F0B5CE46474615042D0C2E0080B5070488
:10027000140C3F0C9946030C7E435D436743634374
:100280007F19340CE4199C46A54203D980235B02F4
:100290009846C4444B4643435143250C36046544B9
:1002A000360C2404A4195B19591820000CBC904684
:1002B0009946F0BDF0B54F464646D646C0B5040057
:1002C00082B00D00914698468B422FD82CD04146E3
:1002D000484600F0B1F829000600200000F0ACF814
:1002E000331A9C46203B9A4600D576E04B46524650
:1002F00093401F004B46624693401E00AF4228D8F1
:1003000025D05346A41BBD41002B00DA7BE0002220
:10031000002300920193012352469340019301234D
:1003200062469340009318E08242D0D90022002315
:10033000009201930A9B002B01D01C605D60009825
:10034000019902B01CBC90469946A246F0BDA3425A
:10035000D7D900220023009201936346002BE9D0F5
:10036000FB079846414672080A437B0866460EE042
:10037000AB4201D1A2420CD8A41A9D4101202419FC
:100380006D410021013E24184D41002E06D0AB42A4
:10039000EED9013E24196D41002EF8D10098019943
:1003A000534600196941002B23DB2B005246D340F2
:1003B0002A006446E2401C0053461500002B2DDB4A
:1003C00026005746BE40330026006746BE40320036
:1003D000801A994100900191ACE7624620239B1A54
:1003E0004A46DA406146130042468A4017001F43DE
:1003F00080E7624620239B1A2A0066469A40230023
:10040000F3401343D4E76246202300219B1A0022C5
:10041000009101920122DA40019280E72023624696
:1004200026009B1ADE402F00B0466646B74046467F
:100430003B003343C8E7C04610B5002903D100F0A4
:1004400007F8203002E0081C00F002F810BDC0469A
:100450001C2101231B04984201D3000C10391B0AF4
:10046000984201D3000A08391B09984201D30009B8
:10047000043902A2105C40187047C046040302020F
:100480000101010100000000000000000023C25C27
:100490000133002AFBD1581E7047000010B5022816
:1004A00016D0032822D0012800D010BD002907D083
:1004B00080219F3001220902C00501F0A6F8F4E76F
:1004C0008021A02000220902C00501F09EF8ECE77F
:1004D000002905D0012208210B4801F096F8E4E735
:1004E00000220821084801F090F8DEE7002905D134
:1004F00000221021044801F088F8D6E701221021DB
:10050000014801F082F8D0E70004005010B502283D
:100510001CD0032827D001280CD000210120FFF790
:10052000BDFF00210220FFF7B9FF00210320FFF7E4
:10053000B5FF0AE00121FFF7B1FF00210220FFF71C
:10054000ADFF00210320FFF7A9FF10BD002101200E
:10055000FFF7A4FF01210220FFF7A0FF00210320E5
:10056000FFF79CFFF1E700210120FFF797FF002133
:100570000220FFF793FF01210320FFF78FFFE4E73D
:1005800010B50400012800D90124154B1B78002B5D
:1005900012D1002C03D0134B1B78002B18D0002C49
:1005A00010D1104B1B78002B0CD0802100220902A7
:1005B0000D4801F02AF805E08021002209020A48CE
:1005C00001F023F8064B1B781C43064B1C7010BD32
:1005D000802101220902044801F017F8F2E7C04621
:1005E00091000020900000200008005070B5050028
:1005F000FFF74CFFFA24E40082B2064E23002900E4
:10060000300002F03BF8230002220349300002F0E0
:1006100035F870BDBC000020C831000800B585B0B9
:10062000042800D904208000054BC258054901A8C0
:1006300002F080F901A8FFF7D9FF05B000BDC04660
:10064000A8000020E0310008F0B589B01422002194
:1006500003A802F067F93A4BD96A04221143D96220
:10066000D96A0A400092009ADA6A01263243DA62B5
:10067000DA6A32400192019AD96A02221143D962A0
:10068000DB6A1A400292029B80273F020022390057
:100690002C4800F0BAFF00222B49A020C00500F032
:1006A000B4FF00229821294800F0AFFF8023DB012E
:1006B000039300240494059603A9224800F0E4FE65
:1006C0000397112504950594069403A91D4800F08D
:1006D000DBFE039604950594069403A9A020C005AB
:1006E00000F0D2FE039704960594069403A9A02077
:1006F000C00500F0C9FE9823039304960594069460
:1007000003A9124800F0C0FE60230393104B04932A
:10071000059403A90D4800F0B7FE80239B000393C6
:100720000494059403A9094800F0AEFE00220021BC
:10073000072000F007FD072000F036FD09B0F0BDEE
:10074000001002400008005001800000000400502A
:100750000000311000B583B0094A116B0123194321
:100760001163126B13400193019B002200210920A9
:1007700000F0E8FC092000F017FD03B000BDC04602
:100780000010024010B5402802D020281ED010BD15
:100790004021164800F032FF00280BD0144B0122F4
:1007A0001A700120FFF7ECFE012280210F4800F0B3
:1007B0002CFFECE70E4B00221A700020FFF7E0FE42
:1007C00000228021094800F020FFE0E720210748AF
:1007D00000F014FF002803D10020FFF797FED6E7B2
:1007E000044B1878FFF792FED1E7C0460004005092
:1007F000910000200000002010B5052202490348A6
:1008000000F0A2FB10BDC046A80000208801002017
:1008100072B6FEE700B583B008220021684602F0F8
:1008200081F82E482E4B03600023C3638022D2053B
:100830004260836005228263043A0261C360202122
:100840004254013143548362C221FF3141629639DF
:10085000FF39425403324261036383614363C361DE
:1008600000F07EFA00282CD11E4B009380235B0100
:1008700001936946194800F007FC002823D11A4B60
:1008800000936946154800F0FFFB00281DD1174B67
:1008900000936946114800F0F7FB002817D1144B6C
:1008A000009369460D4800F0EFFB002811D1114B71
:1008B00000936946094800F0E7FB00280BD103B01C
:1008C00000BDFFF7A5FFFFF7A3FFFFF7A1FFFFF7AD
:1008D0009FFFFFF79DFFFFF79BFFC04688010020A9
:1008E000002401400800000C400000188000001C9B
:1008F000000100200002002410B50B480B4B0360E0
:10090000E1235B02436000238360C36003610C2228
:1009100042618361C3610362436201F05FFF0028AB
:1009200000D110BDFFF774FFBC0000200044004060
:1009300000B599B0342200210BA801F0F3FF142276
:10094000002106A801F0EEFF18220021684601F000
:10095000E9FF1D490B681D4A1A4080231B01134300
:100960000B6002230B9301220E920F320F9214930D
:10097000002315938023DB0216938023DB03179358
:100980000BA800F0AFFE002818D10F2306930C3BF4
:1009900007930023089309930A93012106A801F005
:1009A0002FF900280CD102230093002302936846FC
:1009B00001F038FA002805D119B000BDFFF728FF73
:1009C000FFF726FFFFF724FF00700040FFE7FFFF5F
:1009D00010B500F039F9FFF7ABFFFFF735FEFFF771
:1009E000B9FEFFF717FFFFF787FF8021A020012244
:1009F0000902C00500F009FE0D4C0122082120006B
:100A000000F003FE01221021200000F0FEFD05226F
:100A10000849094800F098FA0120FFF7B1FD0220CB
:100A2000FFF7FCFDFA20400000F034F9F7E7C0467C
:100A300000040050A800002088010020054B5A6BDC
:100A400001210A435A63996B802252050A439A6333
:100A50007047C0460010024070B588B004001422F0
:100A6000002103A801F05EFF234B22689A4201D0C7
:100A700008B070BD214B5A6B8026B60032435A63D2
:100A8000D96A01221143D962D96A0A400192019AB6
:100A9000D96A02221143D962DB6A1A400292029B90
:100AA000C823039303250495A02003A9C00500F0E3
:100AB000EBFC039504950025059503A9104800F06B
:100AC000E3FC1048104B036045608560C5608023DF
:100AD0000361466180231B0183612023C36105629A
:100AE00000F0A2FB002803D1064BE3649C62BFE741
:100AF000FFF78EFEF8E7C0460024014000100240D8
:100B000000040050400100200800024010B586B0EB
:100B100004001422002101A801F004FF2268154BF3
:100B20009A4201D006B010BD134B996B80229202FD
:100B30000A439A63D96A01221143D962DB6A1A40D7
:100B40000092009BC023DB00019302230293013338
:100B5000049301330593A02001A9C00500F094FC83
:100B6000002200211C2000F0EDFA1C2000F01CFBEC
:100B7000D8E7C0460044004000100240FEE7FEE710
:100B80007047704710B500F073F810BD10B5202005
:100B900000F042FD402000F03FFD10BD10B50248BE
:100BA00000F014FC10BDC0464001002010B5024802
:100BB00001F03EFA10BDC046BC00002010B5030095
:100BC0000B4A1268002A08D0094A1068C3186A46FE
:100BD000934206D8064A136010BD054A05491160C4
:100BE000F2E701F075FE0C23036001204042F3E7B9
:100BF00094000020F00100207047000010B50400B0
:100C00000F4B1978FA208000FFF77EFA01000D4B98
:100C10001868FFF779FA00F0D3FA00280DD1032CF9
:100C200001D901200AE0013000222100404200F0F9
:100C300089FA034B5C60002000E0012010BDC04633
:100C4000080000200400002010B5084A1368402165
:100C50000B4313600020FFF7D1FF041E02D00124D4
:100C6000200010BDFFF7EAFEFAE7C0460020024070
:100C7000034A1168034B1B785B1813607047C0462A
:100C8000E401002008000020014B18687047C046AE
:100C9000E401002070B50400FFF7F6FF0500631CB7
:100CA00002D0044B1B78E418FFF7EEFF401BA04274
:100CB000FAD370BD0800002010B582B00400084BC4
:100CC00018680849FFF720FA4443019402E0019BA9
:100CD000013B0193019B002BF9D102B010BDC0462E
:100CE0000400002040420F0070B5040002689168C3
:100CF00003230B40012B0DD09168184B19420ED0E5
:100D0000636D102213436365A36D0F3A1343A3650C
:100D1000012070BD1368DB07EED50020F9E793686A
:100D200001210B4393600120FFF7C6FFFFF7ACFFE3
:100D3000050023681B68DB070ED4FFF7A5FF401BE7
:100D40000A28F6D9636D102213436365A36D0F3A29
:100D50001343A3650120DCE70020DAE717000080D9
:100D600070B5041E00D1E0E0436D002B2ED0636D02
:100D7000DB0631D421688B6804221A402CD1636DC4
:100D80006B4803400630FF300343636588680323E4
:100D90000340012B29D06368C0200006834228D07D
:100DA0008020C005834224D080200006834220D0CA
:100DB0000B699B009B080B615E4B19685E48014004
:100DC000196019686068014319601BE0836550224F
:100DD0008354FFF741FECAE7636D10221343636536
:100DE00050230022E254012070BD0B68DB0713D4AE
:100DF000D1E70B699B009B080B6121680B69606858
:100E000003430B612168CB6818208343CB602168C2
:100E1000CB68A0680343CB60464B19684748014044
:100E200019601968606B400601431960236899686E
:100E3000C90004D49868802149050143996021685C
:100E4000CB683F480340CB602068C168E3682569F0
:100E5000022D2DD013432022A25C520313432C22D7
:100E6000A25C52001343226B1343A2699203134303
:100E7000E269D20313430B43C360636AC222FF32A9
:100E8000934205D02168CA68A06A03431343CB602C
:100E90002123E35C012B0DD0E36B012B1ED02368D3
:100EA0001A69D2072DD51A6901218A431A6128E0EF
:100EB0000422CFE71F33E35C002B06D12268D16800
:100EC00080235B020B43D360E6E7636D202213436C
:100ED0006365A36D1F3A1343A365DDE722681369B9
:100EE00018490B40136121680A69236C606C034345
:100EF000A06C034313430B612268136901210B4368
:100F000013612268536907218B4353612268536937
:100F1000A16B0B4353610023A365636D03229343CD
:100F2000023A1343636500205EE701205CE7C04698
:100F3000FDFEFFFF08270140FFFFC3FFFFFFFFFD8E
:100F40001902FEFF03FCFFFFF8B504000D001600B8
:100F500003689A6852073CD45022825C012A3AD036
:100F6000012150228154DA680A43DA60C369012BF7
:100F70002DD0FFF7B9FE071E27D1636D174A1A401F
:100F800080235B00134363650023A3655022A354B1
:100F9000E36C134ADA62E36C124A1A63E36C124A96
:100FA0005A6323681C221A602268536810210B437D
:100FB00053602168403133002A00E06C00F080F972
:100FC0002268936804210B4393603800F8BD002722
:100FD000D3E70227F9E70227F7E7C046FEF0FFFF55
:100FE000ED0F0008631000086F10000810B5836A49
:100FF0005A6D5021114203D0DB6C5B6B984710BDDA
:10100000596D802292000A435A651A68D068C0213F
:101010000901084214D12021595C002910D111681E
:1010200009070DD5916849070ED451680C208143FA
:1010300051605A6D09490A400431FF310A435A652B
:101040001800FFF7D9FBDAE75A6D20210A435A65E9
:101050009A6D1F390A439A65F2E7C046FEFEFFFF0C
:10106000704710B5806AFFF7FBFF10BD704710B5E1
:10107000806A436D402213434365836D3C3A1343BA
:101080008365FFF7F3FF10BD70B504000D0050231A
:10109000C35C012B4BD050230122C25403689A68D1
:1010A00052071AD4234A4968914229D0996A2A687A
:1010B0005203520B0A439A622B685B0316D42B68C7
:1010C0009B0305D51C4A11688023DB030B43136087
:1010D00050230022E254002070BD436D20221343B0
:1010E000436550230022C2540120F5E7124A1168DB
:1010F00080231B040B4313600A20FFF7DDFDDEE7AE
:10110000996A2A685203520B914399622B685B03D8
:1011100004D5094A136809490B4013602B689B03E7
:10112000D6D5054A136806490B401360D0E7022064
:10113000D2E7C0460110000008270140FFFF7FFFF3
:10114000FFFFBFFF70B5002811DB8308144DC033CB
:101150009B005C5903221040C000FC321600864000
:10116000B44389010A40824022435A5170BDC0B243
:101170000F230340083B9B0806339B00094A944613
:1011800063445D6803242040C000FF2214008440B3
:10119000A54389011140814029435960E6E7C046D3
:1011A00000E100E000ED00E0002805DB1F2318400F
:1011B0001E3B8340014A13607047C04600E100E0D7
:1011C00001380A4B98420FD8094A50600948036A0F
:1011D0001B021B0AC02109060B4303620023936014
:1011E00007331360002070470120FCE7FFFFFF007A
:1011F00010E000E000ED00E070B51C25446C2540D7
:10120000066C0124AC407460046863608368102B32
:1012100004D0036899600368DA6070BD03689A605F
:101220000368D960F9E7000070B5041E3DD0056879
:101230001F4BE8181421FEF767FF800060641D4B08
:10124000236425230222E2542B681B4A1A40A36818
:10125000E1680B4321690B4361690B43A1690B43AF
:10126000E1690B43216A0B4313432B608023DB01AD
:10127000A2689A4210D0114B19681C22656C154067
:101280000F20A840814319601968606C02406068B3
:10129000904002000A431A600023E36325220121E3
:1012A000A154013AA354002070BD0120FCE7C046C0
:1012B000F8FFFDBF000002400F80FFFFA8000240C2
:1012C00070B504002420205C012832D024200125A0
:1012D00025540130205C012804D024230022E2544C
:1012E000022070BD2430013525540020E0632568BC
:1012F00028680126B04328602000FFF77DFF236B9C
:10130000002B0BD0226813680E210B431360226858
:10131000136801210B4313600020E2E72268136881
:1013200004218B4313602268136806310B4313605A
:10133000EDE70220D5E710B52523C35C022B06D0CC
:101340000423C36320330022C254012010BD02686D
:1013500013680E218B43136001680A6801239A43C6
:101360000A601C22416C0A40016C1C0094404C60D5
:101370002522835423330022C2540020E6E710B50F
:101380002523C35C022B03D00423C363012010BDBB
:10139000026813680E218B43136001680A680123F9
:1013A0009A430A601C22416C0A40016C1C00944064
:1013B0004C602522835423330022C254836B002BBC
:1013C00002D098470020E2E70020E0E770B5036C08
:1013D0001968046825681C23426C134004229A4053
:1013E000114214D06A0712D523689B0603D42368E0
:1013F0000422934323601C22436C1A40016C042393
:1014000093404B60036B002B00D0984770BD0222C5
:101410009A4011421AD0AA0718D523689B0606D411
:1014200023680A22934323602523093AC2541C22CD
:10143000436C1A40016C022393404B60242300222A
:10144000C254C36A002BE1D09847DFE708229A40D4
:101450001142DBD02B07D9D523680E22934323609A
:101460000E32436C1A40016C01231C0094404C6006
:10147000C3632522835423330022C254436B002BC1
:10148000C4D09847C2E70000F0B5CE46474680B5C5
:1014900000238BE085685F000326BE40B5432E0025
:1014A000CD68BD40354385604568A5434C68260935
:1014B000012434409C402C434460C7685E000324F0
:1014C000B440E443A44627408D68B5403D43C56021
:1014D0004C68022C01D0122C10D1DC080834A40076
:1014E000A146275807251D40AD000F24AC40A74357
:1014F0000C69AC4025003D434C46255005686446C8
:10150000254003244F683C40B4402C4304604C68A1
:10151000E4004AD5344D6C6B012634436C639C085F
:10152000A51CAD00314EAF5903251D40AD000F265F
:10153000AE40B743A026F605B0424DD02C4EB04287
:101540004CD02C4EB04245D00626AE4035003D432F
:101550000234A400254EA551274C2568D4432E0003
:1015600026404F68FF0301D515432E00224D2E6003
:101570006D682E0026404F68BF0301D515432E002D
:101580001D4D6E60AD682E0026404F68FF0201D5EC
:1015900015432E00184DAE60ED682C404E68B60223
:1015A00001D52A431400144AD46001330A68140098
:1015B000DC4015D001249C402240F6D04D686E1EC0
:1015C000012E00D866E7112D00D163E7122D00D05F
:1015D00073E75FE70226B8E70026B6E70126B4E71F
:1015E0000CBC90469946F0BD00100240000001403E
:1015F00000040050000800500004014003690B4241
:1016000001D1002070470120FCE7002A01D181624E
:1016100070478161FCE7000010B5054B5B6918421B
:1016200000D110BD024B5861FFF7ACF8F9E7C04696
:101630000004014010B5264BDA680C231340082B38
:1016400042D00C2B11D0042B09D0214B5A68520BDD
:1016500007231340013380200002984010BD1C4B2B
:101660001B68DB0632D51B48F8E7910C0F230B40B3
:101670001949C85C920D03231A40541C144BDB68B3
:10168000DB030DD4124B1B68DB0613D5114A002374
:101690000021FEF7E5FD22000023FEF7C1FDDDE796
:1016A0000E4A00230021FEF7DBFD22000023FEF797
:1016B000B7FDD3E70A4A00230021FEF7D1FD22003F
:1016C0000023FEF7ADFDC9E70448C7E70448C5E7B6
:1016D0000010024000093D005C31000800127A0051
:1016E0000024F400F0B583B0041E00D169E2C54BBC
:1016F000DA680C251540DA68802676021640036801
:10170000DB0736D5082D2CD00C2D28D0636880221D
:101710005202934255D0A022D202934258D0B94BE4
:101720001A68B9490A401A601A68802149020A40B9
:101730000192019A1A68B5490A401A606368002B41
:1017400052D0FFF7A1FA0700AE4B1B689B0310D4E1
:10175000FFF79AFAC01B6428F6D9032032E2002E64
:10176000D4D0A84B1B689B0303D56368002B00D122
:101770002AE223689B076DD5E3689A0605D5A14840
:10178000026820210A4302608B43042D3CD00C2DBB
:1017900038D0002B00D1B0E09A490A680920824372
:1017A00013430B60FFF770FA0600964B1B685B074C
:1017B00000D599E0FFF768FA801B0228F5D90320CD
:1017C00000E2904A116880235B020B431360B5E787
:1017D0008C4B19688022D2020A431A601968802251
:1017E00052020A431A60A9E7FFF74EFA0700854B39
:1017F0001B689B03BDD5FFF747FAC01B6428F6D9C9
:101800000320DFE1002EC4D17E4A1268520702D5C0
:10181000002B00D1DAE17B4E72687D490A402169D4
:1018200009020A437260326809218A431343336014
:10183000FFF700FFF26812090F231340754AD35CCB
:10184000D840754B1860754B1868FFF7D7F900281A
:1018500000D0B7E12368DB062DD5002D60D1694BA0
:101860001B689B0503D5A369002B00D1B0E1654A35
:1018700053686B490B40216A0B43536053681B024A
:101880001B0AE16909060B435360236A590B0131B6
:1018900080231B028B40D16809090F220A405D4951
:1018A0008A5CD3405C4A13605C4B1868FFF7A6F96A
:1018B000002800D086E123681B077DD56369002BD3
:1018C00067D0504A136D01210B431365FFF7DCF914
:1018D00006004C4B1B6D9B076ED4FFF7D5F9801BA0
:1018E0000228F6D903206DE146494B68484A134067
:1018F0002269120213434B60ACE7424A136801218C
:101900008B431360FFF7C0F906003E4B1B685B0773
:10191000A0D5FFF7B9F9801B0228F6D9032051E1C1
:10192000A369002B22D0374A116880235B000B4348
:101930001360FFF7A9F90600324B1B689B0506D41C
:10194000FFF7A2F9801B0228F6D903203AE12D4ABD
:10195000536833490B40216A0B43536053681B02A1
:101960001B0AE16909060B435360A4E7254A136883
:101970002C490B401360FFF787F90600214B1B68C9
:101980009B0598D5FFF780F9801B0228F6D9032024
:1019900018E11C4A136D01218B431365FFF774F99D
:1019A0000600184B1B6D9B0706D5FFF76DF9801BD2
:1019B0000228F6D9032005E123685B0700D48EE0F6
:1019C000104B9B6BDB001BD40E4A916B80235B0595
:1019D0000B4393630126144B1B68DB0528D5A368D2
:1019E00080225200934237D0002B4DD1054B1A6D07
:1019F0000C490A401A651A6D0C490A401A6531E013
:101A00000026E8E700100240FFFFFEFFFFFFFBFF9C
:101A1000FFE0FFFF68310008040000200C000020F8
:101A2000FF1FFFFFFFFEFFFF00700040FFFBFFFFF7
:101A30006B4A116880235B000B431360FFF724F9A6
:101A40000700674B1B68DB05C9D4FFF71DF9C01BF6
:101A50006428F6D90320B5E0624A116D80235B004B
:101A60000B431365A368002B28D0FFF70DF907007F
:101A70005C4B1B6D9B0530D4FFF706F9C01B5A4B1E
:101A80009842F5D903209DE0A022D200934209D0CC
:101A9000544B1A6D55490A401A651A6D54490A404B
:101AA0001A65DFE74F4B196D013AFF3A0A431A6591
:101AB000196D802252000A431A65D3E7FFF7E4F854
:101AC0000700484B1B6D9B0507D5FFF7DDF8C01BD2
:101AD000454B9842F5D9032074E0012E1AD0636A71
:101AE000002B00D176E00C2D4FD0022B18D03D4AB0
:101AF000136840490B401360FFF7C6F80400394BE8
:101B00001B689B013FD5FFF7BFF8001B0228F6D9E1
:101B1000032057E0334A936B37490B409363DEE76A
:101B2000304A136833490B401360FFF7ADF80500E6
:101B30002C4B1B689B0106D5FFF7A6F8401B02281B
:101B4000F6D903203EE02749CB682C4A1340A26A0D
:101B5000E06A0243206B02431343CB600A68802390
:101B60005B0413430B60FFF78FF804001D4B1B68E9
:101B70009B0106D4FFF788F8001B0228F6D9032042
:101B800020E000201EE000201CE0012B24D0154B9B
:101B9000DA6880235B021340A16A8B4201D00120E6
:101BA00010E0F0239B031340E16A8B4201D0012037
:101BB00008E0C0231B041A40236B9A420ED0012078
:101BC00000E0012003B0F0BD0120FBE70120F9E7B0
:101BD0000120F7E70020F5E70120F3E70020F1E717
:101BE000007000400010024088130000FFFEFFFF5D
:101BF000FFFBFFFFFFFFFFFEFFFFFFEFFFFF02FF07
:101C000070B505000C00002800D1D1E06A4B1A68BD
:101C1000012313408B4219D32B689B0706D5674AD3
:101C2000D368F0218B43A9680B43D3602B68DB0793
:101C30007BD56B68022B20D0032B40D0012B44D0E6
:101C40005E4A126892051DD4012099E05A4A136831
:101C500001218B4323431360FFF716F80600564B10
:101C60001A6801231340A342D6D0FFF70DF8801B5A
:101C7000534B9842F3D9032082E0504A12689203F2
:101C800000D497E04D49CA68032082431343CB60D8
:101C9000FEF7FAFF06006B68022B1CD0032B28D03E
:101CA000012B34D0454BDB680C221A423DD0FEF7A5
:101CB000EBFF801B424B9842F4D9032060E03F4A7F
:101CC00012689201DED401205AE03C4A12685207A1
:101CD000D8D4012054E0394BDA680C231340082B88
:101CE00023D0FEF7D1FF801B354B9842F3D9032058
:101CF00046E0324BDA680C2313400C2B15D0FEF76C
:101D0000C3FF801B2E4B9842F3D9032038E02B4BA6
:101D1000DA680C231340042B07D0FEF7B5FF801BB5
:101D2000274B9842F3D903202AE0234B1A6801235A
:101D30001340A34225D82B685B0706D51F4AD368FA
:101D400020490B40E9680B43D3602B681B0707D57C
:101D50001A49CB681C4A13402A69D2001343CB604E
:101D6000FFF768FC154BDA6812090F231340174A76
:101D7000D35CD840164B1860164B1868FEF73EFF30
:101D800070BD0D4A136801218B4323431360FEF796
:101D90007BFF0600084B1A6801231340A342CAD0F8
:101DA000FEF772FF801B064B9842F3D90320E7E74A
:101DB0000120E5E70120E3E7002002400010024097
:101DC00088130000FFF8FFFFFFC7FFFF683100081E
:101DD000040000200C000020014B18687047C0462A
:101DE0000400002010B5FFF7F7FF044BDA68120A71
:101DF00007231340024AD35CD84010BD00100240B4
:101E00007831000810B5FFF7E7FF044BDA68D20A13
:101E100007231340024AD35CD84010BD0010024093
:101E20007831000870B5040003689B064CD55B4B05
:101E30009B6BDB0000D571E0584A916B80235B05FA
:101E40000B4393630125564B1B68DB0568D5534B49
:101E50001968C0239B031940626813408B4206D067
:101E6000C0239B0211001940994200D16DE04B4BF9
:101E70001B6DC02189020B4015D00A409A4212D036
:101E800023689B060FD5454B186D464A02401E6DD0
:101E90008021090331431965196D434E314019659D
:101EA0001A65C30558D46368C02292021900114014
:101EB000914260D039490B6DC022920260680240A5
:101EC00013430B65012D60D023689B0706D5334A69
:101ED000D36C0C218B43A1680B43D36423685B074D
:101EE00006D52E4AD36C31490B40E1680B43D364CD
:101EF00023681B0706D5294AD36C2D490B4021695D
:101F00000B43D36423681B0645D5244AD36C294967
:101F10000B4061690B43D364002070BD002592E73C
:101F20001F4A116880235B000B431360FEF7ACFE71
:101F300006001B4B1B68DB0500D588E7FEF7A4FEF7
:101F4000801B6428F5D90320E7E7144B1B689B032B
:101F500000D48CE70120E0E7FEF796FE06000F4B69
:101F60001B6D9B059FD4FEF78FFE801B124B984282
:101F7000F5D90320D1E709490A6810480240C0207A
:101F80008003034013430B6094E70A008B6B0C49FA
:101F90000B40936398E70020BFE7C0460010024063
:101FA00000700040FFFFFCFFFFFFF7FFFFF3FFFFA4
:101FB000FFCFFFFFFFFFF3FF88130000FFFFCFFFFE
:101FC000FFFFFFEF026813680B490B4013600268C4
:101FD00093682331FF318B439360036E012B05D04F
:101FE0002023C367002303664366704702681368B3
:101FF0000F318B431360F3E7DFFEFFFF704710B52F
:102000000268136840218B431360202383670023F9
:102010008366FFF7F3FF10BD704710B5806A002399
:102020005A228352083A8352FFF7F6FF10BD7047D9
:1020300070B504000168CB6908688D688D4A1A4044
:1020400009D19E0607D5860605D5636E002B01D003
:102050002000984770BD002A00D180E001222A406C
:1020600002D1854E30427AD0DD0707D5C50505D5AA
:1020700001260E628025615931436151990709D5C6
:10208000002A07D0216802250D627E356159042699
:1020900031436151590709D5002A07D02168042529
:1020A0000D627C35615902263143615119070AD509
:1020B000810601D4002A06D02268082515628021F5
:1020C00062582A4362501A050AD5420108D522688F
:1020D0008021090111628021625820252A43625023
:1020E0008022A258002AB5D09B0606D5830604D5C7
:1020F000636E002B01D0200098478023E2582368AC
:102100009B685B0602D42823134221D02000FFF7EE
:1021100059FF23689A68520616D59A6840218A4367
:102120009A60236F002B0BD0544A9A63206FFFF7FD
:1021300026F9002800D18DE7206F836B984789E747
:102140002000FFF769FF85E72000FFF765FF81E7C3
:102150002000FFF761FF80230022E2507AE7226E21
:10216000012A0ED0DA0201D56A0272D41A0677D596
:10217000020675D5A36E002B00D16BE720009847AF
:1021800068E7DA06EED5C206ECD510230B622268AA
:1021900093685B0637D5216F0B685B689BB2002B99
:1021A00000D157E75820205A984200D852E75A20C9
:1021B00023520B681B689B0609D55823E15A02334A
:1021C000E35AC91A89B22000FFF731FF42E71368CA
:1021D0002B490B401360226893680331FF318B4316
:1021E0009360226893683F318B4393602023E367B9
:1021F000002323662268136830398B431360206FF5
:10220000FFF799F8D9E75823E15A0233E05A091A3F
:1022100089B2E35A9BB2002B00D11BE7002900D101
:1022200018E7136817480340136022689368233047
:10223000FF30834393602023E367002323666366B4
:10224000226813680F30834313602000FFF7EFFE0E
:1022500000E780235B030B62200000F0F5FAF9E64B
:102260005B0600D4F6E6430600D4F3E62000FFF751
:10227000C6FEEFE60F080000200100041B20000846
:10228000FFFEFFFFDFFEFFFFD0B50400016883689B
:102290000269134342691343C26913430A688948B8
:1022A000024013430B602268536887490B40E16882
:1022B0000B435360A1692268844B9A4201D0236A80
:1022C00019439368824803400B4393602268814B13
:1022D0009A4212D07D4B9A4224D010237B498A42E5
:1022E00040D080221202E169914276D0082B00D9B9
:1022F000E1E09B00784AD3589F46784BD96C0C2379
:102300000B40042B0AD005D9082B27D00C2B07D162
:102310000823E3E7002B03D10023DFE70423DDE7F5
:102320001023DBE76D4BDB6CC02109010B408021E2
:10233000C9008B420ED009D9802109018B420FD0F0
:10234000C02109018B4207D10823C7E7002B03D125
:102350000023C3E70423C1E71023BFE70223BDE73F
:102360000223BBE7022B2DD007D9042B30D0082B3A
:1023700000D090E08020000207E0002B00D08AE02F
:10238000FFF730FD002800D187E0626853009B18FA
:10239000834200D983E01303834200D281E0070E19
:1023A000060250080021801979410023FDF738FF0B
:1023B0004B4BC2184B4B9A4200D974E02368D8604B
:1023C000002053E0454B1B68DB0604D44648DCE79D
:1023D000FFF730F9D6E74548D7E7082B65D89B00CB
:1023E000434AD3589F46FFF7FDFC00285FD04000CA
:1023F00063685B08C0186168FDF786FE83B200045D
:10240000000C010010393B4A914252D80F229343ED
:102410001A0040080723184010432368D8600020A2
:1024200024E0FFF7EFFCE0E72C4B1B68DB0607D44A
:102430002D48DCE7FFF7FEF8D7E780200002D6E75B
:102440002A48D4E7FFF7CEFC002836D063685B0843
:1024500018186168FDF758FE0004000C0200103ADD
:10246000244B9A422BD82368D8600020002363664F
:10247000A366D0BDFFF7C6FCE6E7184B1B68DB067A
:1024800007D41948E2E7FFF7D5F8DDE7802000021E
:10249000DCE71648DAE70120E8E70020E6E701205C
:1024A000E4E70120E2E70120E0E70120DEE7002089
:1024B000DCE70120DAE70120D8E70020D6E7012099
:1024C000D4E7C046F369FFEFFFCFFFFF00480040AD
:1024D000FFF4FFFF0044004080310008001002407C
:1024E00000FDFFFFFFFC0F000024F40000093D0089
:1024F000A4310008EFFF0000436ADB0706D502683D
:1025000053682C490B40816A0B435360436A9B0715
:1025100006D50268536828490B40C16A0B435360D3
:10252000436A5B0706D50268536824490B40016B78
:102530000B435360436A1B0706D502685368204962
:102540000B40416B0B435360436ADB0606D50268C0
:1025500093681C490B40816B0B439360436A9B0655
:1025600006D50268936818490B40C16B0B43936012
:10257000436A5B060BD50268536814490B40016C33
:102580000B43536080235B03026C9A420AD0436A78
:102590001B0606D5026853680D490B40816C0B433E
:1025A00053607047026853680A490B40416C0B4303
:1025B0005360ECE7FFFFFDFFFFFFFEFFFFFFFBFFA8
:1025C000FF7FFFFFFFEFFFFFFFDFFFFFFFFFEFFFDB
:1025D000FFFFF7FFFFFF9FFFF0B5C64600B5050000
:1025E0000C0017009846069E2B68DB6923401B1BD6
:1025F0005A425341BB423BD1731CF5D0FEF744FB1A
:102600004346C01AB04220D8002E1ED02B681A684C
:102610005207E9D5DA691205E6D5802212011A625D
:102620002A68136814490B4013602A689368A33121
:10263000FF318B4393602023AB67EB678022AB5065
:1026400054330022EA54032013E02A6813680A492D
:102650000B4013602A689368A331FF318B4393606A
:102660002023AB67EB6754330022EA54032000E0D9
:10267000002004BC9046F0BD5FFEFFFFF0B585B0C2
:1026800004000E0017001D00836F202B60D100296D
:1026900061D0002A61D080235B0182689A421CD0FD
:1026A0007423E35C012B5AD074230122E2540C33CF
:1026B0000022E2505F3BA367FEF7E6FA0390502347
:1026C000E7520233E75280235B01A2689A420BD0A3
:1026D000002774230022E25419E00369002BDFD1A4
:1026E000CB07DDD5012034E02369002B01D0002782
:1026F000EFE737000026ECE73B882268DB05DB0DBF
:10270000936202375222A35A013B9BB2A352522337
:10271000E35A9BB2002B0FD00095039B002280212F
:102720002000FFF759FF00281BD1002EE4D032789B
:1027300023689A620136E5E70095039B0022402159
:102740002000FFF749FF00280DD12023A36700E0F8
:10275000022005B0F0BD0120FBE70120F9E70220CF
:10276000F7E70320F5E70320F3E7000030B583B077
:10277000040080230022C250FEF786FA0500236879
:102780001B681B070DD423681B685B0716D4202326
:10279000A367E367002323667422A354002003B0D9
:1027A00030BD80210C4B00930300002289032000E0
:1027B000FFF712FF0028E6D00320F0E78021064B48
:1027C00000932B000022C9032000FFF705FF00281B
:1027D000DDD00320E3E7C046FFFFFF0110B5041E74
:1027E0002ED0836F002B21D02423A3672268136887
:1027F00001218B4313602000FFF746FD012814D010
:10280000636A002B18D1226853680E490B4053604D
:10281000226893682A218B439360226813682939C0
:102820000B4313602000FFF7A1FF10BD743300229B
:10283000C254FEF76BF9D7E72000FFF75DFEE2E731
:102840000120F2E7FFB7FFFF7047000013488546FD
:1028500013480168090E134A914205D112481349E1
:10286000016013481349016013481449144A0023B6
:1028700002E0D458C4500433C4188C42F9D3114A2E
:10288000114C002301E013600432A242FBD3FEF797
:10289000B3F900F023F8FEF79BF8FEE700080020EC
:1028A000040000001F00000034100240010000007E
:1028B0000000014000000000000000207400002023
:1028C0004832000874000020EC010020FEE7000000
:1028D000014B18687047C0461000002070B50026F4
:1028E0000C4D0D4C641BA410A64209D1002600F02B
:1028F00029FC0A4D0A4C641BA410A64205D170BDE8
:10290000B300EB5898470136EEE7B300EB58984711
:102910000136F2E740320008403200084032000839
:102920004432000803001218934200D17047197016
:102930000133F9E70EB400B50B499CB01DAB029012
:102940000690079104910948094904CB0591006854
:1029500002A9019300F070F80023029A13701CB0D2
:1029600008BC03B01847C046FFFFFF7F10000020DF
:102970000802FFFFF0B58E6885B007000C000392D7
:1029800001939E423CD890238A89DB001A4234D0BE
:102990000325096923685B1A0293636902985D4302
:1029A000EB0F5D19019B6D1001331B18AB4200D971
:1029B0001D00530532D52900380000F023FB061E08
:1029C00009D10C233B6040230120A28940421343DC
:1029D000A38105B0F0BD029A216900F0ACFAA38989
:1029E000144A1A4080231343A381029B2661F618E0
:1029F00026606561019EED1AA560019B9E4200D98B
:102A0000019E32000399206800F09EFAA36800201E
:102A10009B1BA36023689E192660DAE72A00380012
:102A200000F04EFB061EE0D12169380000F0A0FA4C
:102A3000C7E7C0467FFBFFFFF0B5A1B003901D00C4
:102A40008B890F0016001B0611D50B69002B0ED1C8
:102A5000402100F0D7FA38603861002805D10C23F6
:102A6000039A0138136021B0F0BD40237B6100233D
:102A700008AC6361203363761033A3760795350085
:102A80002B78002B01D0252B46D1AB1B05930CD006
:102A9000320039000398FFF76DFF431C00D1AEE010
:102AA0006269059B9446634463612B78002B00D1D7
:102AB000A5E0012200235242626004A95432521858
:102AC0006E1C2360E360A3601370A3653178052258
:102AD000534800F025FA751C00281FD12268D30640
:102AE00004D5532304A95B1820211970130704D5BA
:102AF000532304A95B182B21197033782A2B16D085
:102B0000350000210A20E3682A786E1C303A092A31
:102B10004ED9002918D010E00135B1E7404B2268AA
:102B2000C01A01238340134323602E00CEE7079B86
:102B3000191D1B680791002B01DB0B9304E05B421E
:102B4000E3600223134323602B782E2B0AD16B788A
:102B50002A2B35D1079B02351A1D1B680792002BC3
:102B60002BDB09932F4E29780322300000F0D8F98F
:102B7000002806D04023801B834022680135134380
:102B800023602978062228486E1C217600F0C8F9B7
:102B900000283CD0254B002B25D10722079B07336B
:102BA0009343083307936369049A9B18636166E74C
:102BB000434301219B183500A6E701235B42D0E780
:102BC00000230A201A000135636029786E1C303911
:102BD000092903D9002BC5D00992C3E74243012339
:102BE00052183500F1E707AB00933A00104B210073
:102BF000039800E000BF0490049B0133D3D1BB894C
:102C00000D985B0600D42EE7012040422BE707AB6E
:102C100000933A00064B2100039800F079F8EAE7A8
:102C2000043200080A3200080E32000800000000DA
:102C300075290008F7B5150001938A680B690090A3
:102C40000C00934200DA130022002B60433212780A
:102C5000002A01D001332B6023689B0602D52B6824
:102C600002332B60062723681F4027D023004333FD
:102C70001B785A1E93412268920630D42200019993
:102C800043320098089EB047431C25D00623206895
:102C90002A68E16803400025042B03D18D1AEB4319
:102CA000DB171D40A3682269934201DD9B1AED18D2
:102CB0000027BD4220D1002010E00137E3682A68D8
:102CC0009B1ABB42D2DD22000123193201990098E0
:102CD000089EB047431CF0D101204042FEBD302089
:102CE000E1184331087021005A1C45310978A218B7
:102CF000433202331170C1E7220001231A320199D5
:102D00000098089EB047431CE6D00137D1E7000089
:102D1000F0B589B004920A00433205930390029201
:102D20000A7E0C000E9B6E2A00D186E01FD8632A13
:102D300033D008D8002A00D18CE0582A4DD0250085
:102D400042352A7030E0642A01D0692AF7D1196827
:102D500025680A1D280629D508681A60002803DAA4
:102D60002D23029A404213706B4E0A274FE0732ABC
:102D700074D008D86F2A1FD0702AE0D120220968A9
:102D80000A43226003E0752A16D0782AD7D12200A0
:102D9000782145321170614E22E025001A684235D3
:102DA000111D196013682B70012365E008681A6013
:102DB0006906D3D500B2D1E719682568081D1860E7
:102DC00008682E0605D5544E08276F2A1BD00A27FF
:102DD00019E06D06F7D580B2F5E745314E4E0A7021
:102DE00018682268011D00681960150621D5D307EF
:102DF00002D520231A4322601027002803D1202364
:102E000022689A4322602300002243331A706368C9
:102E1000A360002B58DB0422216891432160002825
:102E200054D1029D002B5AD02500337842352B70A7
:102E300055E05506DBD580B2D9E71A680D68101D3C
:102E40004969186013682E0601D5196002E06D0605
:102E5000FBD519800023029D23614FE01A68111DE4
:102E60001960156800216268280000F059F80028F0
:102E700001D0401B6060636823610023029A1370D5
:102E80003CE023692A0004990398059DA847431C48
:102E90003ED023689B0715D4079BE068984239DA37
:102EA000180037E022000123193204990398059E87
:102EB000B047431C2CD00135E368079A9B1AAB42FC
:102EC000F0DCE9E70025F7E70028ADD0029D3900E6
:102ED000FDF7A0F9735C013D2B700028F7D1082F96
:102EE00009D12368DB0706D563682269934202DCB7
:102EF0003023013D2B70029B5B1B2361059B07AABE
:102F000000932100049B0398FFF794FE431CB8D163
:102F10000120404209B0F0BD1532000826320008F9
:102F2000C9B28218904201D10020704703788B42C9
:102F3000FBD00130F6E7002310B59A4200D110BD56
:102F4000CC5CC4540133F8E710B5884202D98B1821
:102F5000984203D3002307E08B5C8354013AFBD2F1
:102F600010BDCC5CC45401339A42FAD1F8E700009A
:102F700070B50500002910D00C1F2368002B00DA63
:102F8000E418280000F0D4F81D4A1368002B05D17E
:102F900063601460280000F0CCF870BDA34209D92A
:102FA000216860188342F3D118685B68411821607A
:102FB000EEE713005A68002A01D0A242F9D9196835
:102FC0005818A0420BD1206809185818196082427D
:102FD000E0D110685268411819605A60DAE7A042DF
:102FE00002D90C232B60D5E721686018824203D1F7
:102FF000106852684118216062605C60CAE7C04690
:103000009C000020032370B5CD1C9D4308350600AD
:103010000C2D1ED20C25A9421DD8300000F088F8D6
:10302000254A14682100002919D1244C2368002B5B
:1030300003D1300000F06AF820602900300000F071
:1030400065F8431C2BD10C233000336000F071F87D
:1030500003E0002DDFDA0C233360002070BD0B6825
:103060005B1B19D40B2B03D90B60CC18256003E034
:103070004B688C420DD11360300000F05AF82000EC
:1030800007220B30231D9043C31AE7D05A42E25067
:10309000E4E763600C00EFE70C004968C3E7032333
:1030A000C41C9C43A042E1D0211A300000F02EF84D
:1030B000431CDBD1C7E7C0469C000020A0000020D5
:1030C000F8B507000D001600002905D11100FFF723
:1030D00099FF04002000F8BD002A03D1FFF748FF44
:1030E0003400F7E700F026F82C00B042F2D23100AD
:1030F0003800FFF787FF041EECD029003200FFF7ED
:103100001AFF29003800FFF733FFE3E7002370B50B
:10311000064C050008002360FDF750FD431C03D159
:103120002368002B00D02B6070BDC046E801002052
:10313000704770470B1F1B68181F002B01DA0B58D4
:10314000C0187047F8B5C046F8BC08BC9E4670472A
:0C315000F8B5C046F8BC08BC9E467047AD
:10315C00030406080C1018203000000000000000CA
:10316C00000000000102030406070809000000002B
:10317C000102030444240008742400087A24000883
:10318C00B624000886240008B6240008B6240008DB
:10319C00B62400088C240008E6230008222400082A
:1031AC0028240008AA24000834240008AA240008B3
:1031BC00AA240008AA2400083A2400080A0D0000DA
:1031CC0043656C6C20332062656C6F77206D696E83
:1031DC002E000000256900004325732E3025730056
:1031EC004325732E303000004325732E25730000C9
:1031FC005425732E30257300232D302B2000686C42
:10320C004C006566674546470030313233343536FD
:10321C003738394142434445460030313233343536
:0C322C0036373839616263646566000063
:083238007CD0FF7F01000000C3
:04324000E900000899
:04324400C1000008BD
:103248000100000000002000010000000400000050
:103258001400002000000000000000000000000032
:103268000000000000000000000000000000000056
:103278000000000000000000000000000000000046
:103288000000000000000000000000000000000036
:103298000000000000000000000000000000000026
:1032A8000000000000000000000000000000000016
:0432B8000000000012
:040000050800284D7A
:00000001FF
